:100000000C9476010C94A7010C94A7010C94A70101
:100010000C94A7010C94A7010C94A7010C94A701C0
:100020000C94A7010C94A7010C94A7010C94A701B0
:100030000C94A7010C94A7010C94A7010C94A701A0
:100040000C94A7010C947A090C94A7010C94A701B5
:100050000C94A7010C94A7010C94A7010C94D00850
:100060000C94A7010C9444090C941A090C94A70150
:100070000C94A7010C94A7010C94A7010C94A70160
:100080000C94A7010C94A7010C94A7010C94A70150
:100090000C94A7010C94A7010C94A7010C94A70140
:1000A0000C94A7010C94A7010C94A7010C94A70130
:1000B0000C94A7010C94A7010C94A7010C94A70120
:1000C0000C94A7010C94A7010C94A7010C94A70110
:1000D0000C94A7010C94A7010C94A7010C94A70100
:1000E0000C94A7010C9436080C9462070C94BF047E
:1000F0000C9466040C940C020C9476030C944E053C
:100100000C947C040C9421020C9472040C946C04E6
:100110000C944D020C9450050C9439020C94180365
:100120000C9462040C9454040C9435020C94310227
:100130000C9427020C9451020C9488040C94FB0339
:100140000C9458040C944C040C946F040C944C02C2
:100150000C9454030C94B8070C9485040C94B607C3
:100160000C9450040C9482040C9409050C947904AA
:100170000C9447020C9443020C943F020C944503E8
:100180000C945A040C945E040C944D050C942B02B0
:100190000C94B7040C9469040C9468030C941A0230
:1001A0000C9412020C9416020C947F040C941E0200
:1001B0000C94CD0A0C9497060C94AE030000010039
:1001C0000800400000010004050D0000200023008D
:1001D000260029002C002F0032000001000003013E
:1001E0000601090100002100240027002A002D003B
:1001F0003000330001010000040107010A01000082
:100200002200250028002B002E00310034000201BE
:100210000000050108010B01050505050705080893
:100220000808020202020A0A080804040404010180
:100230000101010101010303030303030303040795
:1002400007070C0C0C0C0C0C0C0C0202020206062C
:100250000606060606060B0B0B0B0B0B0B0B01021F
:1002600010202008081020401020408002010201C8
:100270000804020101020408102040808040201080
:1002800008040201800402018040201008040201D9
:100290000804020101020408102040800102040841
:1002A0001020408000000A0B02090C0D0E08070305
:1002B0000401000000000000000000000000000039
:1002C000000000000000000000000000000000002E
:1002D00012111000000000000000000000000000EB
:1002E00000000000000000000000CD0A11241FBE25
:1002F000CFEFD1E2DEBFCDBF00E00CBF12E0A0E047
:10030000B2E0E8E2FCE100E00BBF02C007900D9212
:10031000AC38B107D9F724E0ACE8B2E001C01D92D7
:10032000A833B207E1F711E0C6E7D1E000E006C06C
:1003300021970109802FFE010E94D70CC537D107F4
:1003400080E00807A9F70E94FD0A0C94120E0C9495
:100350000000CF93DF9300D000D01F921F92CDB743
:10036000DEB7FC01138212822FEF248322872387BA
:1003700014861586118A108A138A128A158A148A9D
:10038000108E178A26E232E03183208320ED37E099
:10039000328F218F2BE0238F2CE0248F2AE0258FB2
:1003A000168E178E28E0EAE0F2E0DE011196019049
:1003B0000D922A95E1F7DC01AF58BF4F88E0FE01AE
:1003C000319601900D928A95E1F728960FB6F89430
:1003D000DEBF0FBECDBFDF91CF9108958150823136
:1003E00008F05AC0E82FF0E08827E650FE4F8F4F04
:1003F0000C94D70C1A021E020C02120216024C02B6
:10040000210227022B023102350239023F02430248
:100410004C0247024D025102809180008F778093F9
:1004200080000895809180008F7DF9CF80918000B9
:10043000877FF5CF84B58F7784BD089584B58F7D90
:10044000FBCF8091B0008F778093B00008958091AA
:10045000B0008F7DF9CF809190008F7780939000CE
:100460000895809190008F7DF9CF80919000877FD3
:10047000F5CF8091A0008F778093A00008958091A0
:10048000A0008F7DF9CF8091A000877FF5CF80916C
:1004900020018F77809320010895809120018F7D26
:1004A000F9CF80912001877FF5CF1F93CF93DF9302
:1004B000282F30E0F901EC55FD4F8491F901E25A03
:1004C000FD4FD491F901E85EFD4FC491CC23A9F012
:1004D000162F81110E94EE01EC2FF0E0EE0FFF1FAE
:1004E000E250FE4FA591B4918FB7F894EC911111A1
:1004F00008C0D095DE23DC938FBFDF91CF911F9191
:100500000895DE2BF8CFCF93DF9390E0FC01E25A01
:10051000FD4F2491885E9D4FFC0184918823D1F08A
:1005200090E0880F991FFC01EC51FE4FA591B4910A
:10053000FC01E250FE4FC591D49161110EC09FB7EE
:10054000F8948C91E22FE0958E238C932881E223FE
:10055000E8839FBFDF91CF9108958FB7F894EC9116
:10056000E22BEC938FBFF6CF3FB7F89480919302C4
:1005700090919402A0919502B091960226B5A89B05
:1005800005C02F3F19F00196A11DB11D3FBFBA2F25
:10059000A92F982F8827BC01CD01620F711D811DE5
:1005A000911D42E0660F771F881F991F4A95D1F76A
:1005B00008958F929F92AF92BF92CF92DF92EF9267
:1005C000FF926B017C010E94B4024B015C01C114DB
:1005D000D104E104F104B9F00E94B4026819790968
:1005E0008A099B09683E73408105910580F321E0EB
:1005F000C21AD108E108F10888EE880E83E0981E3F
:10060000A11CB11CE4CFFF90EF90DF90CF90BF9082
:10061000AF909F908F9008952FB7F89460918F02BC
:100620007091900280919102909192022FBF089553
:10063000AF92BF92CF92DF92EF92FF920F931F93F0
:10064000CF93DF936C017B018B01040F151FEB012E
:100650005E01AE18BF08C017D10759F06991D601E5
:10066000ED91FC910190F081E02DC6011995892B47
:1006700079F7C501DF91CF911F910F91FF90EF9016
:10068000DF90CF90BF90AF900895FC01538D448DC3
:10069000252F30E0842F90E0821B930B541710F02D
:1006A000CF96089501970895FC01918D828D98173A
:1006B00061F0A28DAE0FBF2FB11D5D968C91928D12
:1006C0009F5F9F73928F90E008958FEF9FEF089543
:1006D000FC01918D828D981731F0828DE80FF11D0C
:1006E000858D90E008958FEF9FEF0895FC01918D27
:1006F000228D892F90E0805C9F4F821B91098F7320
:100700009927089587E992E00E94760321E0892BDA
:1007100009F420E0822F0895FC01A48DA80FB92FC1
:10072000B11DA35ABF4F2C91848D90E001968F7319
:100730009927848FA689B7892C93A089B1898C9138
:10074000837080648C93938D848D981306C0028887
:10075000F389E02D80818F7D80830895EF92FF9251
:100760000F931F93CF93DF93EC0181E0888F9B8DD4
:100770008C8D98131AC0E889F989808185FF15C08E
:100780009FB7F894EE89FF896083E889F9898081B1
:100790008370806480839FBF81E090E0DF91CF9180
:1007A0001F910F91FF90EF900895F62E0B8D10E0A2
:1007B0000F5F1F4F0F731127E02E8C8D8E110CC011
:1007C0000FB607FCFACFE889F989808185FFF5CF5C
:1007D000CE010E948C03F1CFEB8DEC0FFD2FF11DAC
:1007E000E35AFF4FF0829FB7F8940B8FEA89FB8999
:1007F00080818062CFCFCF93DF93EC01888D8823F7
:10080000B9F0AA89BB89E889F9898C9185FD03C073
:10081000808186FD0DC00FB607FCF7CF8C9185FF58
:10082000F2CF808185FFEDCFCE010E948C03E9CF0E
:10083000DF91CF91089580E090E0892B29F00E940C
:10084000820381110E94000080E090E0892B49F032
:1008500080E090E0892B29F00E94000081110E9425
:10086000000080E090E0892B49F080E090E0892B47
:1008700029F00E94000081110E94000080E090E0B9
:10088000892B49F080E090E0892B29F00E9400003C
:1008900081110C9400000895FC01848995890895C4
:1008A000FC01828993890895FC01808991890895CA
:1008B00080E00895FC01738362830895FC018281C6
:1008C00093810895FC01868597850895FC018185B3
:1008D0000895FC0180850895FC0187810895FC013D
:1008E000868108954095FC0125854223642B658708
:1008F0000895FC0164870895FC0163870895FC0155
:1009000062870895FC0164830895FC01658308955E
:100910008F929F92AF92BF92CF92DF92EF92FF920F
:10092000CF93DF93EC016B010E940C034B015C0140
:10093000F12CE12C0E940C03681979098A099B09A2
:100940006C157D058E059F0580F48A819B81039738
:1009500089F381E0DF91CF91FF90EF90DF90CF900E
:10096000BF90AF909F908F90089580E0F3CFFC01EF
:100970002281338123303105D1F381E008954F92F4
:100980005F926F927F928F929F92AF92BF92CF921F
:10099000DF92EF92FF920F931F93CF93DF93EC01BF
:1009A0006B018A010E940C032B013C01F12CE12C0C
:1009B0004801B12CA12C0E940C0364197509860909
:1009C00097096C157D058E059F0588F4E881F981EE
:1009D0000680F781E02DCE011995811109C001151E
:1009E000110549F3C501B4010E94D902E4CF80E0AA
:1009F000DF91CF911F910F91FF90EF90DF90CF90FB
:100A0000BF90AF909F908F907F906F905F904F902E
:100A10000895CF92DF92EF92FF920F931F93CF939F
:100A2000DF93EC018B016B01F12CE12CE881F98162
:100A30000680F781E02DCE011995811108C00115BE
:100A40001105A1F3C701B6010E94D902EFCFDF91D2
:100A5000CF911F910F91FF90EF90DF90CF9008956D
:100A600081E00895862720E1829FB0011124862726
:100A7000482F50E0292F382FCA0164E095958795BB
:100A80006A95E1F728273927CA0173E0880F991F73
:100A90007A95E1F782279327089508958CE30895C6
:100AA0006F927F928F929F92AF92BF92CF92DF927E
:100AB000EF92FF920F931F93CF93DF934D3388F004
:100AC000712C872DDF91CF911F910F91FF90EF90A7
:100AD000DF90CF90BF90AF909F908F907F906F905E
:100AE0000895042F5B01EC01E881F9810088F18908
:100AF000E02D1995E881F9810688F789E02DCE016E
:100B00001995782E8823E1F27E0129E7E20EF11C87
:100B100017E0100F612F8FEF9FEF0E943205E12F3A
:100B2000F0E064E0F595E7956A95E1F7EE5EFD4F3C
:100B30002081F70120831F70E12FF0E0EE5EFD4F72
:100B40002081FE01E658FF4F20831A85612F0E9405
:100B50003205E12FF0E074E0F595E7957A95E1F73D
:100B6000EE5EFD4F2081FE01E558FF4F20831F7090
:100B7000E12FF0E0EE5EFD4F2081FE01E458FF4FD3
:100B800020831B85612F0E943205E12FF0E0A4E055
:100B9000F595E795AA95E1F7EE5EFD4F2081FE0100
:100BA000E358FF4F20831F70E12FF0E0EE5EFD4F12
:100BB0002081FE01E258FF4F20831C85612F0E9497
:100BC0003205E12FF0E0B4E0F595E795BA95E1F74D
:100BD000EE5EFD4F2081FE01E158FF4F20831F7024
:100BE000E12FF0E0EE5EFD4F2081FE01E058FF4F67
:100BF00020831D85612F0E943205E12FF0E024E063
:100C0000F595E7952A95E1F7EE5EFD4F2081FE010F
:100C1000EF57FF4F20831F70E12FF0E0EE5EFD4F96
:100C20002081FE01EE57FF4F20836501470110E050
:100C3000A00EB11EF2E08F0E911CCA14DB04E9F085
:100C4000F60161906F01662D0E943205E62DF0E0FD
:100C500054E0F595E7955A95E1F7EE5EFD4F20815A
:100C6000F4012087F6013197E081EF70F0E0EE5E4D
:100C7000FD4F2081F4012187DDCF98012B5F3F4F8D
:100C8000220F331F80959095D701A20FB31FFC014F
:100C900054E0F695E7955A95E1F7EF70FF27EE5E81
:100CA000FD4F30813C93F801EE0FFF1FBF016E0D29
:100CB0007F1DAC014F7055274E5E5D4FFA013081AC
:100CC000FB0133870A5F1F4F000F111F0E0D1F1D01
:100CD000FC01EF2FFF27E295EF70EE5EFD4F3081B4
:100CE000F8013083E92FFF27EF70FF27EE5EFD4FFD
:100CF000808113968C93FE01E150FF4F245F208387
:100D00008A819B81039709F4DCCEE159F1091082B5
:100D100031961082319610826F8D81E068278D8D1B
:100D20000E94550283E090E09B838A83CACEEF92B3
:100D3000FF921F93CF93DF93FC01228133812330F5
:100D4000310509F452C0EC0182819381049761F06E
:100D5000678D858D0E94550260E08C8D0E94550242
:100D600084E090E09B838A8388A18823E9F010E0E7
:100D70008FEF9FEF7E01FDE6EF0EF11CF701208162
:100D8000121740F4FE01E10FF11D61A50E9432052A
:100D90001F5FF4CF883B904F71F088899989019645
:100DA000998B888B19A218A289A1DF91CF911F91ED
:100DB000FF90EF9008958AA58E838BA58F838CA5D5
:100DC00088878DA589878D81811107C09E818C813F
:100DD000981719F08E818F3F31F78A899B89019688
:100DE0009B8B8A8B81E089A3DECF80E0DECFCF931F
:100DF000DF93FC01228133812230310569F0EC015F
:100E0000678D858D0E94550260E08C8D0E94550291
:100E100082E090E09B838A83DF91CF910895FC016B
:100E200001900020E9F73197AF01481B590BBC0135
:100E300087E992E00C9418038F929F92AF92BF9231
:100E40000F931F93CF93DF93CDB7DEB7A1970FB664
:100E5000F894DEBF0FBECDBF19A2423008F44AE0BD
:100E60008E010F5D1F4F842E912CB12CA12CA5015A
:100E700094010E94A60CE62FB901CA01EA30F4F4ED
:100E8000E05DD801EE938D01232B242B252B79F7E0
:100E900090E080E0109719F0CD010E940F07A19615
:100EA0000FB6F894DEBF0FBECDBFDF91CF911F917B
:100EB0000F91BF90AF909F908F900895E95CE1CF24
:100EC0000E94040E8F929F92AF92BF92CF92DF92B8
:100ED000EF92FF92CF93DF93FC012789308D232B74
:100EE000B9F1EC010E940C034B015C0189E0C82EB2
:100EF000D12CE12CF12CE881F981008CF18DE02DD1
:100F0000CE011995882321F10E940C03AB01BC018D
:100F1000481959096A097B098F89988DB0E0A0E0CA
:100F200084179507A607B707F8F00E94130CA701CE
:100F300096010E94740C9B01AC012F5F3F4F4F4FF5
:100F40005F4FA4E6B0E00E94930C0E94D902D3CF79
:100F500081E0DF91CF91FF90EF90DF90CF90BF9035
:100F6000AF909F908F90089580E0F3CF0C947B0D0D
:100F7000DF92EF92FF920F931F93CF93DF93EC01D9
:100F80007B018A01E881F9810680F781E02D1995BE
:100F9000D82E8823D1F0E114F104B1F00115110528
:100FA00099F0FE01E359FF4F80818750F80190814D
:100FB000891708F48083F801408150E0BE01625D2A
:100FC0007F4FC7010E94090E19A28D2DDF91CF918D
:100FD0001F910F91FF90EF90DF900895CF93DF93D3
:100FE000CDB7DEB7C350D1400FB6F894DEBF0FBE09
:100FF000CDBFCE0101960E94A90182E0CD5FDE4FF8
:101000008883C350D140AE014D5F5E4FBE016F5F1C
:101010007E4FCE0101960E94B807882331F1CD5F43
:10102000DE4F8881C350D1408230F9F4CF5FDE4F6C
:1010300068817981C150D14090E080E04AE00E940F
:101040001C0784E792E00E940F07CF5FDE4F888184
:101050009981C150D140CD5FDE4F0FB6F894DEBF0D
:101060000FBECDBFDF91CF910895F5CF4F925F9224
:101070006F927F92AF92BF92CF92DF92EF92FF92E8
:101080001F93CF93DF931F921F92CDB7DEB77C01E2
:1010900090938D0280938C0261E0FC01848D0E940C
:1010A000830260E0F701838D0E94830261E0F70113
:1010B000858D0E948302C7010E94F706F701C18C4B
:1010C000D28CC114D10409F444C0F12CE12C83E08A
:1010D000CC0CDD1CEE1CFF1C8A95D1F79EEBA92ED3
:1010E00091E0B92E11E0412C24E2522E24EF622E21
:1010F000712C42E050E0B501CE0101960E946B0CCC
:1011000029813A8150E040E0C301B2010E94A60C5F
:10111000CA01B901A70196010E94A60CDA01C90112
:101120000297A109B1098D3F9F4FA105B10510F1AB
:101130001F5F62E0A60EB11C1730D9F622303105D0
:101140004105510530F02115310581E04807510571
:1011500098F081E00F900F90DF91CF911F91FF9059
:10116000EF90DF90CF90BF90AF907F906F905F90A7
:101170004F900895163069F31092800088E08093B4
:10118000810080918100182B109381003093890099
:101190002093880080916F00826080936F00D9CF88
:1011A0001F920F920FB60F9211242F933F938F939C
:1011B0009F93AF93BF9380918F0290919002A091E3
:1011C0009102B091920230918E0223E0230F2D37CD
:1011D00058F50196A11DB11D20938E0280938F02B8
:1011E00090939002A0939102B09392028091930207
:1011F00090919402A0919502B09196020196A11D42
:10120000B11D8093930290939402A0939502B093A2
:101210009602BF91AF919F918F913F912F910F9027
:101220000FBE0F901F90189526E8230F0296A11D60
:10123000B11DD2CF1F920F920FB60F9211240BB691
:101240000F922F933F934F935F936F937F938F935F
:101250009F93AF93BF93EF93FF9387E992E00E9430
:101260008C03FF91EF91BF91AF919F918F917F91EF
:101270006F915F914F913F912F910F900BBE0F9007
:101280000FBE0F901F9018951F920F920FB60F92DE
:1012900011240BB60F922F938F939F93EF93FF938D
:1012A000E091A702F091A8028081E091AD02F09157
:1012B000AE0282FD1DC090818091B0028F5F8F735E
:1012C0002091B102821741F0E091B002F0E0E956BE
:1012D000FD4F958F8093B002FF91EF919F918F9179
:1012E0002F910F900BBE0F900FBE0F901F9018956F
:1012F0008081F2CF1F920F920FB60F9211240BB67E
:101300000F92CF92DF92EF92FF920F931F932F9342
:101310003F934F935F936F937F938F939F93AF937D
:10132000BF93CF93DF93EF93FF93C0918C02D09143
:101330008D028A819B81049709F0E3C02B8D30E0F8
:10134000F901EC55FD4F8491F901E25AFD4F0491EA
:10135000F901E85EFD4F1491112379F081110E948B
:10136000EE01E12FF0E0EE0FFF1FE653FE4FA591D7
:10137000B491EC910E2381E009F480E081702E8D10
:10138000982F9227821719F08BA18F5F8BA38AA1C8
:101390008917F1F18CA12DE1803508F42BE08CA1A7
:1013A000820F8CA39AA38CA1803A08F46DC08EA101
:1013B0009FA1969587959FA38EA38BA1853028F03A
:1013C0008EA19FA198609FA38EA38CA1805A8CA30D
:1013D0001BA28DA1882309F488C088A58F5F88A7E8
:1013E0008C3008F451C08EA19FA1982F9F73892F34
:1013F00086958695887028E0280F281769F0E82FD1
:10140000F0E0EE5EFD4F3081931739F08F5FF5CF3E
:101410008CA18C5E8CA3C7CF80E090E1899F900166
:1014200011248EA19FA136E0969587953A95E1F714
:10143000482F9595879595958795887098E0980F92
:10144000891749F0E82FF0E0EE5EFD4F5081451717
:1014500019F08F5FF5CF80E0822BDE01A359BF4FDB
:101460009C91AE0144595F4F911129C0FA018083CC
:101470009081973018F09081943408F11DA28889EA
:1014800099890196998B888BFF91EF91DF91CF918C
:10149000BF91AF919F918F917F916F915F914F918C
:1014A0003F912F911F910F91FF90EF90DF90CF9080
:1014B0000F900BBE0F900FBE0F901F9018952C91A0
:1014C00091E0920F9C932C0F3D2F311DF90181A7C4
:1014D0009C91DA018C91981730F01DA281E088A3CD
:1014E000CE010E94F70618A6CFCF8EA19FA1883308
:1014F0009B4051F681E08DA318A6C359DF4F188297
:10150000C3CF8A819B81039709F0BECF8E0100591A
:101510001F4FF801808191E0980F9083811113C0D3
:101520006E01FEE6CF0ED11CD601EC91AF56BF4F37
:101530008C91E81778F0CE010E94F7068C899D897E
:1015400001969D8B8C8BD8018C91883008F49CCFB0
:101550001C929ACFEC0FFD2FF11DEF58FF4F6081C9
:1015600070E07E01BFE6EB0EF11CF701808191E097
:10157000980F908302C0759567958A95E2F7617020
:101580008C8D0E945502D7018C918630E0F21C921E
:10159000F60180818F5F8083D6CFE7E9F2E0138286
:1015A000128288EE93E0A0E0B0E084839583A68366
:1015B000B78386E692E09183808385EC90E09587FF
:1015C000848784EC90E09787868780EC90E0918B0D
:1015D000808B81EC90E0938B828B82EC90E0958BFA
:1015E000848B86EC90E0978B868B118E128E138EF7
:1015F000148E84E393E00C94A901789484B58260FE
:1016000084BD84B5816084BD85B5826085BD85B5A6
:10161000816085BD80916E00816080936E00109224
:10162000810080918100826080938100809181009F
:101630008160809381008091800081608093800030
:101640008091B10084608093B1008091B00081608E
:101650008093B0008091910082608093910080918E
:1016600091008160809391008091900081608093CF
:1016700090008091A10082608093A1008091A100E0
:1016800081608093A1008091A00081608093A00080
:1016900080912101826080932101809121018160EC
:1016A00080932101809120018160809320018091AD
:1016B0007A00846080937A0080917A0082608093BF
:1016C0007A0080917A00816080937A0080917A001C
:1016D000806880937A001092C100E091A702F09197
:1016E000A80282E08083E091A302F091A40210821C
:1016F000E091A502F091A6028FEC80831092AF02D8
:10170000E091AB02F091AC0286E08083E091A90207
:10171000F091AA02808180618083E091A902F0911A
:10172000AA02808188608083E091A902F091AA02D8
:10173000808180688083E091A902F091AA02808173
:101740008F7D808387E792E00E940F0784E792E015
:101750000E940F0784E393E00E943608811108C0BD
:101760008FE792E00E940F0784E792E00E940F0744
:101770000E94EE07BC0190E080E04AE00E941C0756
:1017800084E792E00E940F070E941B04F1CF8F9222
:101790009F92AF92BF92CF92DF92EF92FF92CF9340
:1017A000DF93EC01688179818A819B8161157105E4
:1017B0008105910521F464E279ED8BE597E02DE157
:1017C00033EF41E050E00E94740C49015A019B0143
:1017D000AC01A7EAB1E40E94930C6B017C01ACEE72
:1017E000B4EFA50194010E94A10CC60ED71EE81EFD
:1017F000F91EF7FE06C081E0C81AD108E10880E8AA
:10180000F80AC882D982EA82FB82C701B6019F77B3
:10181000DF91CF91FF90EF90DF90CF90BF90AF908E
:101820009F908F9008958F929F92AF92BF92CF9288
:10183000DF92EF92FF92609100027091010280911D
:10184000020290910302611571058105910521F451
:1018500064E279ED8BE597E02DE133EF41E050E074
:101860000E94740C49015A019B01AC01A7EAB1E442
:101870000E94930C6B017C01ACEEB4EFA5019401C6
:101880000E94A10CC60ED71EE81EF91EF7FE06C068
:1018900081E0C81AD108E10880E8F80AC092000285
:1018A000D0920102E0920202F0920302C701B60157
:1018B0009F77FF90EF90DF90CF90BF90AF909F9079
:1018C0008F9008956093000270930102809302024A
:1018D000909303020895FB01DC0102C005900D9274
:1018E00041505040D8F70895052E97FB1EF4009400
:1018F0000E948B0C57FD07D00E94A60C07FC03D05A
:101900004EF40C948B0C50954095309521953F4F9B
:101910004F4F5F4F089590958095709561957F4FDB
:101920008F4F9F4F08950E94C80CA59F900DB49FA4
:10193000900DA49F800D911D11240895B7FF0C9464
:10194000930C0E94930C821B930B0895A1E21A2E14
:10195000AA1BBB1BFD010DC0AA1FBB1FEE1FFF1F53
:10196000A217B307E407F50720F0A21BB30BE40BA3
:10197000F50B661F771F881F991F1A9469F76095EA
:101980007095809590959B01AC01BD01CF010895A4
:10199000A29FB001B39FC001A39F700D811D1124B0
:1019A000911DB29F700D811D1124911D0895EE0FA0
:1019B000FF1F881F8BBF0790F691E02D19940F939E
:1019C0001F93CF93DF938230910510F482E090E073
:1019D000E0913604F091370430E020E0B0E0A0E080
:1019E000309799F42115310509F44AC0281B390BA9
:1019F00024303105D8F58A819B816115710589F103
:101A0000FB0193838283FE0111C0408151810281D9
:101A1000138148175907E0F04817590799F41097B0
:101A200061F012960C93129713961C933296CF0185
:101A3000DF91CF911F910F91089500933604109379
:101A40003704F4CF2115310551F04217530738F010
:101A5000A901DB019A01BD01DF01F801C1CFEF014E
:101A6000F9CF9093370480933604CDCFFE01E20F77
:101A7000F31F819391932250310939832883D7CF63
:101A80002091340430913504232B41F42091060237
:101A900030910702309335042093340420910402DE
:101AA000309105022115310541F42DB73EB7409123
:101AB000080250910902241B350BE0913404F09187
:101AC0003504E217F307A0F42E1B3F0B2817390744
:101AD00078F0AC014E5F5F4F2417350748F04E0F8A
:101AE0005F1F5093350440933404819391939FCFAB
:101AF000F0E0E0E09CCFCF93DF930097E9F0FC01AA
:101B0000329713821282A0913604B0913704ED010E
:101B100030E020E01097A1F420813181820F931FE3
:101B200020913404309135042817390709F061C039
:101B3000F0933504E0933404DF91CF910895EA01E6
:101B4000CE17DF07E8F54A815B819E0141155105FB
:101B5000B1F7E901FB83EA8349915991C40FD51F7D
:101B6000EC17FD0761F4808191810296840F951F27
:101B7000E90199838883828193819B838A83F0E042
:101B8000E0E012968D919C9113970097B9F52D91F5
:101B90003C911197CD010296820F931F209134043E
:101BA000309135042817390739F6309751F51092DE
:101BB000370410923604B0933504A0933404BCCF9C
:101BC000D383C28340815181840F951FC817D907E1
:101BD00061F44E5F5F4F88819981480F591F51838F
:101BE00040838A819B81938382832115310509F08B
:101BF000B0CFF0933704E09336049ECFFD01DC01B3
:101C0000C0CF13821282D7CF81E090E0F8940C9479
:101C1000120EFB01DC0102C001900D9241505040B8
:081C2000D8F70895F894FFCFF6
:101C2800010000000000380480002A2A2A2A2A2AF3
:101C3800382C0D0E131516191A1C232526292A2CA3
:101C48003234000000004D05B60736089706B8077D
:101C580050054E050905B7048804BF0462075804F7
:101C680082047F047C047904720485046F046C0484
:101C78006904660462045E045A0458045404500457
:101C88004C0400000000AE0318034503FB03760371
:101C9800540368030D0A00696E69742E2E2E0069BC
:0C1CA8006E6974206661696C6564000060
:00000001FF
